{
  "address": "0x5FbDB2315678afecb367f032d93F642f64180aa3",
  "abi": [
    {
      "inputs": [
        {
          "internalType": "string",
          "name": "_greeting",
          "type": "string"
        }
      ],
      "stateMutability": "nonpayable",
      "type": "constructor"
    },
    {
      "inputs": [],
      "name": "ft",
      "outputs": [
        {
          "internalType": "uint256",
          "name": "res",
          "type": "uint256"
        }
      ],
      "stateMutability": "pure",
      "type": "function"
    },
    {
      "inputs": [],
      "name": "greet",
      "outputs": [
        {
          "internalType": "string",
          "name": "",
          "type": "string"
        }
      ],
      "stateMutability": "view",
      "type": "function"
    },
    {
      "inputs": [
        {
          "internalType": "string",
          "name": "_greeting",
          "type": "string"
        }
      ],
      "name": "setGreeting",
      "outputs": [],
      "stateMutability": "nonpayable",
      "type": "function"
    }
  ],
  "transactionHash": "0x5adcb423b40b7123c5509116595c5f15f1a171a8b8758531151be42dffd412dd",
  "args": [
    "hello"
  ],
  "solcInputHash": "412d06388ca72d6eda88fec51022b47d",
  "bytecode": "0x60806040523480156200001157600080fd5b5060405162000d6638038062000d66833981810160405281019062000037919062000278565b6200006760405180606001604052806022815260200162000d4460229139826200008760201b6200022c1760201c565b80600090805190602001906200007f92919062000156565b5050620004c5565b620001298282604051602401620000a0929190620002fe565b6040516020818303038152906040527f4b5c4277000000000000000000000000000000000000000000000000000000007bffffffffffffffffffffffffffffffffffffffffffffffffffffffff19166020820180517bffffffffffffffffffffffffffffffffffffffffffffffffffffffff83818316178352505050506200012d60201b60201c565b5050565b60008151905060006a636f6e736f6c652e6c6f679050602083016000808483855afa5050505050565b8280546200016490620003ea565b90600052602060002090601f016020900481019282620001885760008555620001d4565b82601f10620001a357805160ff1916838001178555620001d4565b82800160010185558215620001d4579182015b82811115620001d3578251825591602001919060010190620001b6565b5b509050620001e39190620001e7565b5090565b5b8082111562000202576000816000905550600101620001e8565b5090565b60006200021d620002178462000362565b62000339565b9050828152602081018484840111156200023657600080fd5b62000243848285620003b4565b509392505050565b600082601f8301126200025d57600080fd5b81516200026f84826020860162000206565b91505092915050565b6000602082840312156200028b57600080fd5b600082015167ffffffffffffffff811115620002a657600080fd5b620002b4848285016200024b565b91505092915050565b6000620002ca8262000398565b620002d68185620003a3565b9350620002e8818560208601620003b4565b620002f381620004b4565b840191505092915050565b600060408201905081810360008301526200031a8185620002bd565b90508181036020830152620003308184620002bd565b90509392505050565b60006200034562000358565b905062000353828262000420565b919050565b6000604051905090565b600067ffffffffffffffff82111562000380576200037f62000485565b5b6200038b82620004b4565b9050602081019050919050565b600081519050919050565b600082825260208201905092915050565b60005b83811015620003d4578082015181840152602081019050620003b7565b83811115620003e4576000848401525b50505050565b600060028204905060018216806200040357607f821691505b602082108114156200041a576200041962000456565b5b50919050565b6200042b82620004b4565b810181811067ffffffffffffffff821117156200044d576200044c62000485565b5b80604052505050565b7f4e487b7100000000000000000000000000000000000000000000000000000000600052602260045260246000fd5b7f4e487b7100000000000000000000000000000000000000000000000000000000600052604160045260246000fd5b6000601f19601f8301169050919050565b61086f80620004d56000396000f3fe608060405234801561001057600080fd5b50600436106100415760003560e01c8063a413686214610046578063bb1631cf14610062578063cfae321714610080575b600080fd5b610060600480360381019061005b919061049b565b61009e565b005b61006a610165565b60405161007791906105c9565b60405180910390f35b61008861019a565b6040516100959190610524565b60405180910390f35b61014b60405180606001604052806023815260200161081760239139600080546100c7906106cc565b80601f01602080910402602001604051908101604052809291908181526020018280546100f3906106cc565b80156101405780601f1061011557610100808354040283529160200191610140565b820191906000526020600020905b81548152906001019060200180831161012357829003601f168201915b5050505050836102c8565b8060009080519060200190610161929190610390565b5050565b600080600a90505b600081106101965781806101809061072f565b925050808061018e906106a2565b91505061016d565b5090565b6060600080546101a9906106cc565b80601f01602080910402602001604051908101604052809291908181526020018280546101d5906106cc565b80156102225780601f106101f757610100808354040283529160200191610222565b820191906000526020600020905b81548152906001019060200180831161020557829003601f168201915b5050505050905090565b6102c48282604051602401610242929190610546565b6040516020818303038152906040527f4b5c4277000000000000000000000000000000000000000000000000000000007bffffffffffffffffffffffffffffffffffffffffffffffffffffffff19166020820180517bffffffffffffffffffffffffffffffffffffffffffffffffffffffff8381831617835250505050610367565b5050565b6103628383836040516024016102e09392919061057d565b6040516020818303038152906040527f2ced7cef000000000000000000000000000000000000000000000000000000007bffffffffffffffffffffffffffffffffffffffffffffffffffffffff19166020820180517bffffffffffffffffffffffffffffffffffffffffffffffffffffffff8381831617835250505050610367565b505050565b60008151905060006a636f6e736f6c652e6c6f679050602083016000808483855afa5050505050565b82805461039c906106cc565b90600052602060002090601f0160209004810192826103be5760008555610405565b82601f106103d757805160ff1916838001178555610405565b82800160010185558215610405579182015b828111156104045782518255916020019190600101906103e9565b5b5090506104129190610416565b5090565b5b8082111561042f576000816000905550600101610417565b5090565b600061044661044184610609565b6105e4565b90508281526020810184848401111561045e57600080fd5b610469848285610660565b509392505050565b600082601f83011261048257600080fd5b8135610492848260208601610433565b91505092915050565b6000602082840312156104ad57600080fd5b600082013567ffffffffffffffff8111156104c757600080fd5b6104d384828501610471565b91505092915050565b60006104e78261063a565b6104f18185610645565b935061050181856020860161066f565b61050a81610805565b840191505092915050565b61051e81610656565b82525050565b6000602082019050818103600083015261053e81846104dc565b905092915050565b6000604082019050818103600083015261056081856104dc565b9050818103602083015261057481846104dc565b90509392505050565b6000606082019050818103600083015261059781866104dc565b905081810360208301526105ab81856104dc565b905081810360408301526105bf81846104dc565b9050949350505050565b60006020820190506105de6000830184610515565b92915050565b60006105ee6105ff565b90506105fa82826106fe565b919050565b6000604051905090565b600067ffffffffffffffff821115610624576106236107d6565b5b61062d82610805565b9050602081019050919050565b600081519050919050565b600082825260208201905092915050565b6000819050919050565b82818337600083830152505050565b60005b8381101561068d578082015181840152602081019050610672565b8381111561069c576000848401525b50505050565b60006106ad82610656565b915060008214156106c1576106c0610778565b5b600182039050919050565b600060028204905060018216806106e457607f821691505b602082108114156106f8576106f76107a7565b5b50919050565b61070782610805565b810181811067ffffffffffffffff82111715610726576107256107d6565b5b80604052505050565b600061073a82610656565b91507fffffffffffffffffffffffffffffffffffffffffffffffffffffffffffffffff82141561076d5761076c610778565b5b600182019050919050565b7f4e487b7100000000000000000000000000000000000000000000000000000000600052601160045260246000fd5b7f4e487b7100000000000000000000000000000000000000000000000000000000600052602260045260246000fd5b7f4e487b7100000000000000000000000000000000000000000000000000000000600052604160045260246000fd5b6000601f19601f830116905091905056fe4368616e67696e67206772656574696e672066726f6d202725732720746f2027257327a264697066735822122021eb64530a04e0383e58848a25258f6c0d34ca33fbbdaed496e7b191bc95d2e164736f6c634300080400334465706c6f79696e67206120477265657465722077697468206772656574696e673a",
  "devdoc": {
    "kind": "dev",
    "methods": {},
    "version": 1
  },
  "userdoc": {
    "kind": "user",
    "methods": {},
    "version": 1
  },
  "storageLayout": {
    "storage": [
      {
        "astId": 4,
        "contract": "contracts/Greeter.sol:Greeter",
        "label": "greeting",
        "offset": 0,
        "slot": "0",
        "type": "t_string_storage"
      }
    ],
    "types": {
      "t_string_storage": {
        "encoding": "bytes",
        "label": "string",
        "numberOfBytes": "32"
      }
    }
  }
}