{
  "address": "0xe7f1725E7734CE288F8367e1Bb143E90bb3F0512",
  "abi": [
    {
      "inputs": [
        {
          "internalType": "address",
          "name": "addr",
          "type": "address"
        }
      ],
      "stateMutability": "nonpayable",
      "type": "constructor"
    },
    {
      "inputs": [],
      "name": "getDays",
      "outputs": [
        {
          "internalType": "uint256",
          "name": "a",
          "type": "uint256"
        }
      ],
      "stateMutability": "pure",
      "type": "function"
    },
    {
      "inputs": [],
      "name": "getMath",
      "outputs": [
        {
          "internalType": "uint256",
          "name": "",
          "type": "uint256"
        }
      ],
      "stateMutability": "pure",
      "type": "function"
    },
    {
      "inputs": [],
      "name": "greet",
      "outputs": [
        {
          "internalType": "string",
          "name": "",
          "type": "string"
        }
      ],
      "stateMutability": "view",
      "type": "function"
    },
    {
      "inputs": [],
      "name": "greeter",
      "outputs": [
        {
          "internalType": "contract Greeter",
          "name": "",
          "type": "address"
        }
      ],
      "stateMutability": "view",
      "type": "function"
    },
    {
      "inputs": [],
      "name": "greeterAddress",
      "outputs": [
        {
          "internalType": "address",
          "name": "",
          "type": "address"
        }
      ],
      "stateMutability": "view",
      "type": "function"
    },
    {
      "inputs": [],
      "name": "newFunction",
      "outputs": [
        {
          "internalType": "string",
          "name": "greeting",
          "type": "string"
        }
      ],
      "stateMutability": "nonpayable",
      "type": "function"
    },
    {
      "inputs": [
        {
          "internalType": "uint256",
          "name": "min",
          "type": "uint256"
        },
        {
          "internalType": "uint256",
          "name": "max",
          "type": "uint256"
        }
      ],
      "name": "randomNum",
      "outputs": [
        {
          "internalType": "uint256",
          "name": "",
          "type": "uint256"
        }
      ],
      "stateMutability": "view",
      "type": "function"
    },
    {
      "inputs": [
        {
          "internalType": "string",
          "name": "_greeting",
          "type": "string"
        }
      ],
      "name": "setGreeting",
      "outputs": [],
      "stateMutability": "nonpayable",
      "type": "function"
    },
    {
      "inputs": [],
      "name": "timeStamp32",
      "outputs": [
        {
          "internalType": "uint32",
          "name": "blockTimestamp",
          "type": "uint32"
        }
      ],
      "stateMutability": "view",
      "type": "function"
    }
  ],
  "transactionHash": "0x26486d1e80eb86c8f95761461157436806629a2604f06eeda2f7d4950a69e0f0",
  "args": [
    "0x5FbDB2315678afecb367f032d93F642f64180aa3"
  ],
  "solcInputHash": "f25c31b313c81a8cc811150d321cf130",
  "bytecode": "0x608060405234801561001057600080fd5b5060405162001f6d38038062001f6d833981810160405281019061003491906100d0565b806000806101000a81548173ffffffffffffffffffffffffffffffffffffffff021916908373ffffffffffffffffffffffffffffffffffffffff16021790555080600160006101000a81548173ffffffffffffffffffffffffffffffffffffffff021916908373ffffffffffffffffffffffffffffffffffffffff16021790555050610142565b6000815190506100ca8161012b565b92915050565b6000602082840312156100e257600080fd5b60006100f0848285016100bb565b91505092915050565b60006101048261010b565b9050919050565b600073ffffffffffffffffffffffffffffffffffffffff82169050919050565b610134816100f9565b811461013f57600080fd5b50565b611e1b80620001526000396000f3fe60806040523480156200001157600080fd5b5060043610620000a05760003560e01c8063a1545ef5116200006f578063a1545ef51462000141578063a41368621462000163578063a72387e51462000183578063cfae321714620001a5578063e1111f1414620001c757620000a0565b80631b28d63e14620000a55780631c8499e514620000c75780632a8816c814620000e95780635d0b09f7146200011f575b600080fd5b620000af620001e9565b604051620000be919062000b2a565b60405180910390f35b620000d1620002f4565b604051620000e0919062000b0d565b60405180910390f35b62000107600480360381019062000101919062000950565b62000318565b60405162000116919062000c01565b60405180910390f35b62000129620003e8565b60405162000138919062000c1e565b60405180910390f35b6200014b62000449565b6040516200015a919062000c01565b60405180910390f35b6200018160048036038101906200017b9190620008c6565b62000455565b005b6200018d6200050c565b6040516200019c919062000af0565b60405180910390f35b620001af62000532565b604051620001be919062000b2a565b60405180910390f35b620001d1620005e0565b604051620001e0919062000c01565b60405180910390f35b60606000604051620001fb90620007bd565b620002069062000bdf565b604051809103906000f08015801562000223573d6000803e3d6000fd5b5090508073ffffffffffffffffffffffffffffffffffffffff1663cfae32176040518163ffffffff1660e01b815260040160006040518083038186803b1580156200026d57600080fd5b505afa15801562000282573d6000803e3d6000fd5b505050506040513d6000823e3d601f19601f82011682018060405250810190620002ad91906200090b565b9150620002f06040518060400160405280600e81526020017f6e6577206772656574657227733a0000000000000000000000000000000000008152508362000624565b5090565b60008054906101000a900473ffffffffffffffffffffffffffffffffffffffff1681565b60008183106200035f576040517f08c379a0000000000000000000000000000000000000000000000000000000008152600401620003569062000bbd565b60405180910390fd5b600083836200036f919062000dac565b905060006064444233856040516020016200038e949392919062000a9a565b6040516020818303038152906040528051906020012060001c620003b3919062000f0a565b905060648183620003c5919062000d4b565b620003d1919062000d13565b85620003de919062000cb6565b9250505092915050565b600064010000000042620003fd919062000f0a565b9050620004466040518060400160405280600481526020017f74696d65000000000000000000000000000000000000000000000000000000008152508263ffffffff16620006c4565b90565b60006301e13380905090565b6200047a60405180606001604052806026815260200162001dc0602691398262000624565b60008054906101000a900473ffffffffffffffffffffffffffffffffffffffff1673ffffffffffffffffffffffffffffffffffffffff1663a4136862826040518263ffffffff1660e01b8152600401620004d5919062000b2a565b600060405180830381600087803b158015620004f057600080fd5b505af115801562000505573d6000803e3d6000fd5b5050505050565b600160009054906101000a900473ffffffffffffffffffffffffffffffffffffffff1681565b606060008054906101000a900473ffffffffffffffffffffffffffffffffffffffff1673ffffffffffffffffffffffffffffffffffffffff1663cfae32176040518163ffffffff1660e01b815260040160006040518083038186803b1580156200059b57600080fd5b505afa158015620005b0573d6000803e3d6000fd5b505050506040513d6000823e3d601f19601f82011682018060405250810190620005db91906200090b565b905090565b600080606490506000600190506000600290506200061c816200060d84866200076490919063ffffffff16565b6200077c90919063ffffffff16565b935050505090565b620006c082826040516024016200063d92919062000b4e565b6040516020818303038152906040527f4b5c4277000000000000000000000000000000000000000000000000000000007bffffffffffffffffffffffffffffffffffffffffffffffffffffffff19166020820180517bffffffffffffffffffffffffffffffffffffffffffffffffffffffff838183161783525050505062000794565b5050565b620007608282604051602401620006dd92919062000b89565b6040516020818303038152906040527f9710a9d0000000000000000000000000000000000000000000000000000000007bffffffffffffffffffffffffffffffffffffffffffffffffffffffff19166020820180517bffffffffffffffffffffffffffffffffffffffffffffffffffffffff838183161783525050505062000794565b5050565b6000818362000774919062000cb6565b905092915050565b600081836200078c919062000d4b565b905092915050565b60008151905060006a636f6e736f6c652e6c6f679050602083016000808483855afa5050505050565b610d66806200105a83390190565b6000620007e2620007dc8462000c64565b62000c3b565b905082815260208101848484011115620007fb57600080fd5b6200080884828562000e5d565b509392505050565b600062000827620008218462000c64565b62000c3b565b9050828152602081018484840111156200084057600080fd5b6200084d84828562000e6c565b509392505050565b600082601f8301126200086757600080fd5b813562000879848260208601620007cb565b91505092915050565b600082601f8301126200089457600080fd5b8151620008a684826020860162000810565b91505092915050565b600081359050620008c0816200103f565b92915050565b600060208284031215620008d957600080fd5b600082013567ffffffffffffffff811115620008f457600080fd5b620009028482850162000855565b91505092915050565b6000602082840312156200091e57600080fd5b600082015167ffffffffffffffff8111156200093957600080fd5b620009478482850162000882565b91505092915050565b600080604083850312156200096457600080fd5b60006200097485828601620008af565b92505060206200098785828601620008af565b9150509250929050565b6200099c8162000de7565b82525050565b620009b7620009b18262000de7565b62000ed8565b82525050565b620009c88162000e35565b82525050565b6000620009db8262000c9a565b620009e7818562000ca5565b9350620009f981856020860162000e6c565b62000a048162000fcf565b840191505092915050565b600062000a1e60118362000ca5565b915062000a2b8262000fed565b602082019050919050565b600062000a4560098362000ca5565b915062000a528262001016565b602082019050919050565b62000a688162000e1b565b82525050565b62000a8362000a7d8262000e1b565b62000f00565b82525050565b62000a948162000e25565b82525050565b600062000aa8828762000a6e565b60208201915062000aba828662000a6e565b60208201915062000acc8285620009a2565b60148201915062000ade828462000a6e565b60208201915081905095945050505050565b600060208201905062000b07600083018462000991565b92915050565b600060208201905062000b246000830184620009bd565b92915050565b6000602082019050818103600083015262000b468184620009ce565b905092915050565b6000604082019050818103600083015262000b6a8185620009ce565b9050818103602083015262000b808184620009ce565b90509392505050565b6000604082019050818103600083015262000ba58185620009ce565b905062000bb6602083018462000a5d565b9392505050565b6000602082019050818103600083015262000bd88162000a0f565b9050919050565b6000602082019050818103600083015262000bfa8162000a36565b9050919050565b600060208201905062000c18600083018462000a5d565b92915050565b600060208201905062000c35600083018462000a89565b92915050565b600062000c4762000c5a565b905062000c55828262000ea2565b919050565b6000604051905090565b600067ffffffffffffffff82111562000c825762000c8162000fa0565b5b62000c8d8262000fcf565b9050602081019050919050565b600081519050919050565b600082825260208201905092915050565b600062000cc38262000e1b565b915062000cd08362000e1b565b9250827fffffffffffffffffffffffffffffffffffffffffffffffffffffffffffffffff0382111562000d085762000d0762000f42565b5b828201905092915050565b600062000d208262000e1b565b915062000d2d8362000e1b565b92508262000d405762000d3f62000f71565b5b828204905092915050565b600062000d588262000e1b565b915062000d658362000e1b565b9250817fffffffffffffffffffffffffffffffffffffffffffffffffffffffffffffffff048311821515161562000da15762000da062000f42565b5b828202905092915050565b600062000db98262000e1b565b915062000dc68362000e1b565b92508282101562000ddc5762000ddb62000f42565b5b828203905092915050565b600062000df48262000dfb565b9050919050565b600073ffffffffffffffffffffffffffffffffffffffff82169050919050565b6000819050919050565b600063ffffffff82169050919050565b600062000e428262000e49565b9050919050565b600062000e568262000dfb565b9050919050565b82818337600083830152505050565b60005b8381101562000e8c57808201518184015260208101905062000e6f565b8381111562000e9c576000848401525b50505050565b62000ead8262000fcf565b810181811067ffffffffffffffff8211171562000ecf5762000ece62000fa0565b5b80604052505050565b600062000ee58262000eec565b9050919050565b600062000ef98262000fe0565b9050919050565b6000819050919050565b600062000f178262000e1b565b915062000f248362000e1b565b92508262000f375762000f3662000f71565b5b828206905092915050565b7f4e487b7100000000000000000000000000000000000000000000000000000000600052601160045260246000fd5b7f4e487b7100000000000000000000000000000000000000000000000000000000600052601260045260246000fd5b7f4e487b7100000000000000000000000000000000000000000000000000000000600052604160045260246000fd5b6000601f19601f8301169050919050565b60008160601b9050919050565b7f72657175697265206d696e203c206d6178000000000000000000000000000000600082015250565b7f66726f6d20746573740000000000000000000000000000000000000000000000600082015250565b6200104a8162000e1b565b81146200105657600080fd5b5056fe60806040523480156200001157600080fd5b5060405162000d6638038062000d66833981810160405281019062000037919062000278565b6200006760405180606001604052806022815260200162000d4460229139826200008760201b6200022c1760201c565b80600090805190602001906200007f92919062000156565b5050620004c5565b620001298282604051602401620000a0929190620002fe565b6040516020818303038152906040527f4b5c4277000000000000000000000000000000000000000000000000000000007bffffffffffffffffffffffffffffffffffffffffffffffffffffffff19166020820180517bffffffffffffffffffffffffffffffffffffffffffffffffffffffff83818316178352505050506200012d60201b60201c565b5050565b60008151905060006a636f6e736f6c652e6c6f679050602083016000808483855afa5050505050565b8280546200016490620003ea565b90600052602060002090601f016020900481019282620001885760008555620001d4565b82601f10620001a357805160ff1916838001178555620001d4565b82800160010185558215620001d4579182015b82811115620001d3578251825591602001919060010190620001b6565b5b509050620001e39190620001e7565b5090565b5b8082111562000202576000816000905550600101620001e8565b5090565b60006200021d620002178462000362565b62000339565b9050828152602081018484840111156200023657600080fd5b62000243848285620003b4565b509392505050565b600082601f8301126200025d57600080fd5b81516200026f84826020860162000206565b91505092915050565b6000602082840312156200028b57600080fd5b600082015167ffffffffffffffff811115620002a657600080fd5b620002b4848285016200024b565b91505092915050565b6000620002ca8262000398565b620002d68185620003a3565b9350620002e8818560208601620003b4565b620002f381620004b4565b840191505092915050565b600060408201905081810360008301526200031a8185620002bd565b90508181036020830152620003308184620002bd565b90509392505050565b60006200034562000358565b905062000353828262000420565b919050565b6000604051905090565b600067ffffffffffffffff82111562000380576200037f62000485565b5b6200038b82620004b4565b9050602081019050919050565b600081519050919050565b600082825260208201905092915050565b60005b83811015620003d4578082015181840152602081019050620003b7565b83811115620003e4576000848401525b50505050565b600060028204905060018216806200040357607f821691505b602082108114156200041a576200041962000456565b5b50919050565b6200042b82620004b4565b810181811067ffffffffffffffff821117156200044d576200044c62000485565b5b80604052505050565b7f4e487b7100000000000000000000000000000000000000000000000000000000600052602260045260246000fd5b7f4e487b7100000000000000000000000000000000000000000000000000000000600052604160045260246000fd5b6000601f19601f8301169050919050565b61086f80620004d56000396000f3fe608060405234801561001057600080fd5b50600436106100415760003560e01c8063a413686214610046578063bb1631cf14610062578063cfae321714610080575b600080fd5b610060600480360381019061005b919061049b565b61009e565b005b61006a610165565b60405161007791906105c9565b60405180910390f35b61008861019a565b6040516100959190610524565b60405180910390f35b61014b60405180606001604052806023815260200161081760239139600080546100c7906106cc565b80601f01602080910402602001604051908101604052809291908181526020018280546100f3906106cc565b80156101405780601f1061011557610100808354040283529160200191610140565b820191906000526020600020905b81548152906001019060200180831161012357829003601f168201915b5050505050836102c8565b8060009080519060200190610161929190610390565b5050565b600080600a90505b600081106101965781806101809061072f565b925050808061018e906106a2565b91505061016d565b5090565b6060600080546101a9906106cc565b80601f01602080910402602001604051908101604052809291908181526020018280546101d5906106cc565b80156102225780601f106101f757610100808354040283529160200191610222565b820191906000526020600020905b81548152906001019060200180831161020557829003601f168201915b5050505050905090565b6102c48282604051602401610242929190610546565b6040516020818303038152906040527f4b5c4277000000000000000000000000000000000000000000000000000000007bffffffffffffffffffffffffffffffffffffffffffffffffffffffff19166020820180517bffffffffffffffffffffffffffffffffffffffffffffffffffffffff8381831617835250505050610367565b5050565b6103628383836040516024016102e09392919061057d565b6040516020818303038152906040527f2ced7cef000000000000000000000000000000000000000000000000000000007bffffffffffffffffffffffffffffffffffffffffffffffffffffffff19166020820180517bffffffffffffffffffffffffffffffffffffffffffffffffffffffff8381831617835250505050610367565b505050565b60008151905060006a636f6e736f6c652e6c6f679050602083016000808483855afa5050505050565b82805461039c906106cc565b90600052602060002090601f0160209004810192826103be5760008555610405565b82601f106103d757805160ff1916838001178555610405565b82800160010185558215610405579182015b828111156104045782518255916020019190600101906103e9565b5b5090506104129190610416565b5090565b5b8082111561042f576000816000905550600101610417565b5090565b600061044661044184610609565b6105e4565b90508281526020810184848401111561045e57600080fd5b610469848285610660565b509392505050565b600082601f83011261048257600080fd5b8135610492848260208601610433565b91505092915050565b6000602082840312156104ad57600080fd5b600082013567ffffffffffffffff8111156104c757600080fd5b6104d384828501610471565b91505092915050565b60006104e78261063a565b6104f18185610645565b935061050181856020860161066f565b61050a81610805565b840191505092915050565b61051e81610656565b82525050565b6000602082019050818103600083015261053e81846104dc565b905092915050565b6000604082019050818103600083015261056081856104dc565b9050818103602083015261057481846104dc565b90509392505050565b6000606082019050818103600083015261059781866104dc565b905081810360208301526105ab81856104dc565b905081810360408301526105bf81846104dc565b9050949350505050565b60006020820190506105de6000830184610515565b92915050565b60006105ee6105ff565b90506105fa82826106fe565b919050565b6000604051905090565b600067ffffffffffffffff821115610624576106236107d6565b5b61062d82610805565b9050602081019050919050565b600081519050919050565b600082825260208201905092915050565b6000819050919050565b82818337600083830152505050565b60005b8381101561068d578082015181840152602081019050610672565b8381111561069c576000848401525b50505050565b60006106ad82610656565b915060008214156106c1576106c0610778565b5b600182039050919050565b600060028204905060018216806106e457607f821691505b602082108114156106f8576106f76107a7565b5b50919050565b61070782610805565b810181811067ffffffffffffffff82111715610726576107256107d6565b5b80604052505050565b600061073a82610656565b91507fffffffffffffffffffffffffffffffffffffffffffffffffffffffffffffffff82141561076d5761076c610778565b5b600182019050919050565b7f4e487b7100000000000000000000000000000000000000000000000000000000600052601160045260246000fd5b7f4e487b7100000000000000000000000000000000000000000000000000000000600052602260045260246000fd5b7f4e487b7100000000000000000000000000000000000000000000000000000000600052604160045260246000fd5b6000601f19601f830116905091905056fe4368616e67696e67206772656574696e672066726f6d202725732720746f2027257327a264697066735822122021eb64530a04e0383e58848a25258f6c0d34ca33fbbdaed496e7b191bc95d2e164736f6c634300080400334465706c6f79696e67206120477265657465722077697468206772656574696e673a46726f6d2074657374202d3e206368616e67696e67206772656574696e6720746f2027257327a2646970667358221220c832935315d2899ae4808e198e2048c7ba108ad7c7a5662ead47b5bbdbef98c564736f6c63430008040033",
  "devdoc": {
    "kind": "dev",
    "methods": {},
    "version": 1
  },
  "userdoc": {
    "kind": "user",
    "methods": {},
    "version": 1
  },
  "storageLayout": {
    "storage": [
      {
        "astId": 236,
        "contract": "contracts/Test.sol:Test",
        "label": "greeter",
        "offset": 0,
        "slot": "0",
        "type": "t_contract(Greeter)71"
      },
      {
        "astId": 238,
        "contract": "contracts/Test.sol:Test",
        "label": "greeterAddress",
        "offset": 0,
        "slot": "1",
        "type": "t_address"
      }
    ],
    "types": {
      "t_address": {
        "encoding": "inplace",
        "label": "address",
        "numberOfBytes": "20"
      },
      "t_contract(Greeter)71": {
        "encoding": "inplace",
        "label": "contract Greeter",
        "numberOfBytes": "20"
      }
    }
  }
}